:060000000C9434000C9486
:1000060000000C9400000C9400000C9400000C946A
:1000160000000C9400000C9400000C9400000C945A
:1000260000000C9400000C9400000C9400000C944A
:1000360000000C9400000C9400000C9400000C943A
:1000460000000C9400000C9400000C9400006173F6
:10005600640080C00400600154000200640158007E
:100066000000F894EE27ECBBF1E0FBBFEBBFE5BF69
:100076008DE0A2E0BB27ED938A95E9F780E094E056
:10008600A0E6ED930197E9F7EAE5F0E08591959111
:10009600009761F0A591B59105901590BF01F0010B
:1000A60005900D920197E1F7FB01F0CFEFE5EDBF6B
:1000B600E4E0EEBFC0E6D1E00C946100EFEFEABBEE
:1000C600E0E0E7BBE8BBE4BBE5BBE1BBE2BBE3BF0B
:1000D600E2BFECBFEFBDEEBDEDBDECBDE7BDE6BDDD
:1000E600EBBDEABDE9BDE8BDE2BDE5BDE4BDE3BDEE
:1000F600E9BFE5BFE4BFEAB9E0E8E8B9E0E0E0BFA0
:10010600E6B9EDB9E6BFA0E10E942E01A0E6B1E096
:100116000E940C01FFCFFFCFFFE0FA95F1F708959B
:10012600AAB3AF70AABBD99AD898F6DFDA9AF4DFE9
:10013600A9B3DA98F1DFDA9AEFDFDA98A7FDF5CFFF
:100146000895A07FAB2BABBBDA9A0E948F00DA989A
:100156000E948F000895AA93D998AAB3A76FAABB45
:10016600BBB3BF70A881EDDFA881A295EADFD99A5B
:100176000C945901DA9A0E948F00E9B3DA980E942A
:100186008F00E07F08950E948F00F4DFAE2FF2DF2C
:10019600D998E295EA2B0895AA930E949300E881E4
:1001A600F0E0EC59FE4FE081A981AE0F0E94AE004F
:1001B60059804880229608950E949300A2E00E94EA
:1001C600AE000E949300ACE00E94AE000E94930035
:1001D600A1E00E94AE00E0E04E2E5E2E0895AA93A6
:1001E600EF93FF93A8816894AA3019F0E894571406
:1001F60030F04394E0E0EA93A42DCEDF36F053943A
:100206008FDFD89AA8810E94AE00FF91EF910C94DF
:100216005901BA93AA931A93A981BA81ED91A98338
:10022600BA831E2FE03019F0A12FD9DFF5CF188140
:1002360023960895AA27BB271197F1F70895AA9345
:10024600D998AAB3A76FAABBBBB3BF70A8810E94F7
:10025600A400D99A2BC0AA93DA98D8987880E88116
:10026600E058E0936601E881E054E093670120D00E
:100276001FD01ED0DFDFA0E2E2DFDCDFA8E21CD069
:10028600A4E01AD0A5E818D0AAB3AF70AABBD99A31
:100296000E94C600E53011F0E0E008C00E9493001D
:1002A600A6E00E94AE000E94DF00E1E021960895DC
:1002B6000E941D01A0E3C3CF0E94AE000C941D0155
:00000001FF
