:040000000C945A0002
:100004000C9400000C9400000C9400000C9400006C
:100014000C9400000C9400000C9400000C9400005C
:100024000C94BD000C9400000C9400000C9400008F
:100034000C9400000C9400000C9400000C9400003C
:100044000C9400000C9400000C9400000C9400002C
:100054005800FFFF4142434445464748494A4B4CF8
:100064004D4E4F505152535455565758595A003EBD
:100074002068656C6C6F20776F726C6421203C0083
:1000840041333A2050726F626C656D31000080C05C
:1000940002000400540002008001560011006001B7
:1000A40073000D00710184000200820192000000BF
:1000B400F894EE27ECBBF1E0FBBFEBBFE5BF8DE0AE
:1000C400A2E0BB27ED938A95E9F780E094E0A0E6EF
:1000D400ED930197E9F7E4E9F0E0859195910097B4
:1000E40061F0A591B59105901590BF01F0010590BF
:1000F4000D920197E1F7FB01F0CFEFE5EDBFE4E0EE
:10010400EEBFC0E6D1E00C94EF00A0E6B1E00E949F
:100114007B01E0E0EA93A1E00E943E01A1E7B1E0A7
:100124000E947B010895A0918001B09181015997AB
:1001340034F0EFEFFFEFE0938001F0938101A091A1
:100144008001B0918101AF3FEFEFBE0739F40E9407
:100154004E01E0E0EA93A0E00E943E01A0E8B1E095
:10016400ED91FD913196FE93EE93E40DF51DA4916E
:100174000E94610108950A921A92FA926A937A93FC
:100184008A939A93AA93BA93EA93FA93EFB7EA936A
:10019400E3E8E2BFAEE7B1E0ED91FD913196FE9365
:1001A400EE93A0917E01B0917F01A83EE3E0BE07EB
:1001B40031F4B9DFE0E0E0937E01E0937F01E9915F
:1001C400EFBFF991E991B991A991999189917991A7
:1001D4006991F990199009901895EFEFEABBE3E063
:1001E400E3BFE3E8E2BFE1E0E9BFA0E10E949D01D3
:1001F4008CDF7894FFCFFFCFFFE0FA95F1F70895F5
:10020400AAB3AF70AABBD99AD898F6DFDA9AF4DF0A
:10021400A9B3DA98F1DFDA9AEFDFDA98A7FDF5CF20
:100224000895A07FAB2BABBBDA9A0E94FE00DA984C
:100234000E94FE000895AA93D998AAB3A76FAABBF7
:10024400BBB3BF70A881EDDFA881A295EADFD99A7C
:100254000C94C801DA9A0E94FE00E9B3DA980E946D
:10026400FE00E07F08950E94FE00F4DFAE2FF2DF6F
:10027400D998E295EA2B0895AA930E940201E88195
:10028400F0E0EE57FE4FE081A981AE0F0E941D0100
:1002940079806880229608950E940201A2E00E945B
:1002A4001D010E940201ACE00E941D010E94020196
:1002B400A1E00E941D01E0E06E2E7E2E0895AA9317
:1002C400EF93FF93A8816894AA3019F0E894791405
:1002D40030F06394E0E0EA93A62DCEDF36F0739419
:1002E4008FDFD89AA8810E941D01FF91EF910C9491
:1002F400C801BA93AA931A93A981BA81ED91A983EB
:10030400BA831E2FE03019F0A12FD9DFF5CF188161
:1003140023960895AA27BB271197F1F70895AA9366
:10032400D998AAB3A76FAABBBBB3BF70A8810E9418
:100334001301D99A2BC0AA93DA98D8989880E881A7
:10034400E058E0938401E881E054E093850120D0F3
:100354001FD01ED0DFDFA0E2E2DFDCDFA8E21CD08A
:10036400A4E01AD0A5E818D0AAB3AF70AABBD99A52
:100374000E943501E53011F0E0E008C00E9402015E
:10038400A6E00E941D010E944E01E1E0219608951D
:100394000E948C01A0E3C3CF0E941D010C948C0128
:00000001FF
