:100000000C947B000C9400000C9400000C940000F5
:100010000C9400000C94FC000C9400000C94000064
:100020000C94E9000C94D2000C9400000C94000095
:100030000C9400000C9400000C9400000C94000040
:100040000C9400000C9400000C9400000C94000030
:100050000C9400005800FFFF414243444546474886
:10006000494A4B4C4D4E4F50515253545556575888
:10007000595A003E2068656C6C6F20776F726C6413
:1000800021203C0041333A2050726F626C656D3123
:1000900000506572696F643A2000206D73004672EB
:1000A00065713A2000204D487A0080C001002D4E35
:1000B000414E00494E460000020004005400020078
:1000C000990156001100600173000D007101840058
:1000D00009007E019100040087019A0007008B014E
:1000E0009E0005009201A50002009D01AA000100EA
:1000F000A101AC000000F894EE27ECBBF1E0FBBFDF
:10010000EBBFE5BF8DE0A2E0BB27ED938A95E9F751
:1001100080E094E0A0E6ED930197E9F7E8EBF0E0EA
:1001200085919591009761F0A591B59105901590F5
:10013000BF01F00105900D920197E1F7FB01F0CFAF
:10014000EFE5EDBFE4E0EEBFC0E6D1E00C9478014E
:10015000A0E6B1E00E94C903A1E7B1E00E94240239
:100160000895A0919901B0919A01599714F00E94B5
:10017000D003A0919901B0919A01AF3FEFEFBE0774
:1001800039F40E94F701E0E0EA93A0E00E94E70161
:10019000A9E9B1E00E94D703E40DF51DA4910E94E6
:1001A0000A0208950E94DD03E3E8E2BFA7E9B1E097
:1001B0000E94D703A0919701B0919801A83EE3E077
:1001C000BE0731F4CEDFE0E0E0939701E0939801C1
:1001D00081C0AA93BA93EA93FA93EFB7EA930E9485
:1001E000EB03ABE9B1E00E94D703E991EFBFF991CE
:1001F000E991B991A99118950E94DD0368971A9326
:100200000A93E7B5FE2FE0E0DF01E6B5F0E0EA0F84
:10021000FB1F8F01662777270E94A304DF01CB0114
:10022000E0E0F8EF69EF75E40E947B050E946A0444
:10023000DF01CB01E0919B01F0919C0166277727BC
:100240000E94E0050E94F003E0E0E0939B01E09350
:100250009C010E94EB03EA81FB81FA93EA93DE01A1
:1002600052960E9479020E94F5030E94A104DF01C8
:10027000CB01E0E0F0E06AE774E40E947B05A0E0D7
:10028000B0E080E89FE30E947B050E940106E3E066
:10029000EA93DE011B960E94A7020E94F701AEE7D7
:1002A000B1E00E942402DE0150960E942402A7E8D9
:1002B000B1E00E94C903ABE8B1E00E942402DE0174
:1002C00016960E942402A2E9B1E00E94240219813C
:1002D00008816A96E991EFBFF991E991B991A991E5
:1002E0009991899179916991F9901990099018954E
:1002F000EFEFEABBE0EFE4BBAF98E3E0E3BFE3E896
:10030000E2BFE0E0EFBDE1E8EEBD0E94EB03E0E01C
:10031000E7BDE6BDE5E2E9BFA0E10E94460218DFC5
:100320007894989B09C0E9B7E462E9BFE9B7EE7F2A
:10033000E9BF0E94D00309C0E9B7EF7DE9BFE9B783
:10034000EB7FE9BFE9B7E160E9BFEBCFFFCFFFE0AB
:10035000FA95F1F70895AAB3AF70AABBD99AD898C5
:10036000F6DFDA9AF4DFA9B3DA98F1DFDA9AEFDF91
:10037000DA98A7FDF5CF0895A07FAB2BABBBDA9A37
:100380000E94A701DA980E94A7010895AA93D9981C
:10039000AAB3A76FAABBBBB3BF70A881EDDFA881CA
:1003A000A295EADFD99A0C947702DA9A0E94A70103
:1003B000E9B3DA980E94A701E07F08950E94A7019F
:1003C000F4DFAE2FF2DFD998E295EA2B0895AA93D5
:1003D0000E94AB01E881F0E0E356FE4FE081A98185
:1003E000AE0F0E94C60179806880229608950E940F
:1003F000AB01A2E00E94C6010E94AB01ACE00E94EA
:10040000C6010E94AB01A1E00E94C601E0E06E2E91
:100410007E2E0895AA93EF93FF93A8816894AA3043
:1004200019F0E894791430F06394E0E0EA93A62D93
:10043000CEDF36F073948FDFD89AA8810E94C60170
:10044000FF91EF910C947702BA93AA931A93A98122
:10045000BA81ED91A983BA831E2FE03019F0A12F44
:10046000D9DFF5CF188123960895AA27BB271197C6
:10047000F1F70895AA93D998AAB3A76FAABBBBB303
:10048000BF70A8810E94BC01D99A31C0AA93DA98A2
:10049000D8989880E881E058E0939F01E881E05483
:1004A000E093A0010E94FA030E94FA030E94FA035B
:1004B000DCDFA0E2DFDFD9DFA8E20E94FF03A4E0D7
:1004C0000E94FF03A5E80E94FF03AAB3AF70AABB76
:1004D000D99A0E94DE01E53011F0E0E008C00E94E8
:1004E000AB01A6E00E94C6010E94F701E1E021965F
:1004F0000895BA93AA93A991B991E991F991309687
:100500002AF4E095F09531966DE26D93E89480E1E0
:1005100097E20DD088EE93E00AD084E6992707D0C1
:100520008AE005D06E2F10D066276C930895662759
:10053000E817F90720F06395E81BF90BC9F7662364
:1005400011F416F008956894605D6D930895BA9360
:10055000AA932497E0E0E883E983EA83EFE3EB835F
:100560001A930A93EB85FC85EF3FAFEFFA0739F456
:100570000E940304AEEAB0E00E94BC03B1C0EF3FAA
:10058000AFE7FA0739F40E940304AFEAB0E00E9433
:10059000BC03A6C0AC85AA2362F4E985FA856B8505
:1005A0007C850E9437040E9408040E940D04EDE23D
:1005B000EC93A885A73010F0E6E0E8871885E12FD6
:1005C0001150E03039F00E9414040E9419040E9476
:1005D000F003F5CF0E9420040E94DD040E9408046D
:1005E00010E0E0E0F0E060E87FE30E94F0030E94AA
:1005F00020040E94C00588F00E9414040E94260472
:100600000E94F0031F5F173238F00E940304A3EB2F
:10061000B0E00E94BC0364C0EACF103029F40E940D
:100620000D04E0E3EC932FC0E12F1150E03059F1BD
:100630000E9414040E941904A0E0B0E080E09FE34F
:100640000E94DD04DF01CB010E94A5030E94F0039C
:100650000E9420040E947B050E946A040E2F0E94C3
:100660000D04E02FE05DEC93E02FF0E00E94140415
:100670000E94ED050E94A3040E942D050E942D04F6
:100680000E943204D1CFE885E03031F10E940D04A0
:10069000EEE2EC93E885E150E887EF5FE9F00E9435
:1006A0002D040E9426040E940804E985FA856B85C2
:1006B0007C850E946A040E2F0E940D04E02FE05DED
:1006C000EC93E02FF0E00E942D040E94ED050E94C3
:1006D000A3040E943204DECFAE81BF81E0E0EC9340
:1006E000198108812D9608950E9406067B816A81F2
:1006F000F981E88177FB770F67FD7160972F9E572F
:1007000081F078F0983190F4AA27BB2788270894C5
:100710008795B795A7959A95D1F7EA23FB23682388
:1007200005C0E8947727EE27FF2766276F77769531
:1007300008F4606877F9A991B99189919991EA17BC
:10074000FB076807790797FB08950E9406060E9439
:10075000F7050E9474030E94FC0519F40E94F2053B
:1007600009C0E6F70E94F205A0E0B0E080E89FE350
:100770000E94D60424960895BA93AA93E991F99118
:10078000A991B991CD0105900D920020E1F7FC01EE
:1007900008950E942402E0E0EA93A1E00C94E701AE
:1007A000EFEFFFEFE0939901F0939A010895ED9137
:1007B000FD913196FE93EE9308950A921A92FA9261
:1007C0006A937A938A939A93AA93BA93EA93FA9341
:1007D000EFB7EA930895E0ECF0EEFDBDECBD0895AF
:1007E000EA83FB836C837D830895EA81FB816C81BE
:1007F0007D8108950E943502A0E30C943A020E9484
:10080000C6010C943502EE81FF81FA93EA930895B4
:10081000E987FA876B877C870895AE81BF8111963F
:10082000AE83BF8311970895AA81BB818C819D817E
:100830000895EDECFCEC6CEC7DE30E942D05089531
:10084000D4DFA985BA858B859C850895E0E0F0E02A
:1008500060E271E40E942D050895A985BA858B8513
:100860009C8508950E940B060E94D604D1CF309734
:100870006040704009F070580895552342F4503894
:1008800011F4E0FF04C03196691F791F6BF050E846
:10089000572711F45F93CFC05F3F31F0660F000C14
:1008A00057956795752F08955F9300200AF0CFC084
:1008B000C8C050E8192E1522880F991F9527550F8B
:1008C000879550E8072E0522660F771F7527550F6D
:1008D00067950895689401C0E8945F93F2DF7038DB
:1008E00018F07F3F08F4A7C056E1571BAAF45195B2
:1008F00058300EF4593030F0EFEFFFEF6FEF7FE735
:1009000077F91AC077275523B9F0EE0FFF1F661F3E
:10091000771F5A95D1F710C07727583028F0EF2F5E
:10092000F62F672F5850F9CF552331F076956795FC
:10093000F795E7955A95D1F700200AF446D15F91D3
:100940000895689401C0E894309760407040B1F019
:10095000002426F0772312F4009437D1172E7EE17D
:10096000112032F07A95EE0FFF1F661F111CF9CF90
:10097000EF2FF62F612D5F938ADF5F9108954F93DC
:10098000AF01FD01DA01AB01BC01CA01402D012C10
:10099000142E4F910895EA0FFB1F681F0895E095EC
:1009A000F0956095EF5FFF4F6F4F08955F9381DF84
:1009B000903871F150E8152604C05F937ADF9038C3
:1009C00039F1703821F1572F591B2BF112F4D7DF71
:1009D000FACF583118F0AA27BB278827583028F0BB
:1009E000AB2FB82F88275850F9CF552329F086957B
:1009F000B795A7955A95D9F7502D512572F0CBDFB1
:100A000038F46795F795E795739513F420C0B7DF31
:100A10003EDF5F910895D8F7FBCFEA1BFB0B680B15
:100A200051F010F40094BBDF662392F3EE0FFF1F2A
:100A3000661F7A95CBF7EE27FF27662777275F910A
:100A40000895EFEFFFEF6FE77FEF5F910895EFEF0E
:100A5000FFEF6FE77FE75F9108955F932ADF7038BC
:100A600051F3903841F301240894791F23F41CF3C7
:100A700000203AF3ECCF0F921F932F933F934F93A5
:100A8000112722279927689FA0018F9F302D410DA4
:100A9000591F6B9F300D411D591F8E9F27D0BF9F3F
:100AA00025D06A9F23D0BE9F1DD0AF9F1BD0AE9F85
:100AB000110D291F391F491F591FE32FF42F652FCF
:100AC000522F4F913F912F911F910F9066232AF043
:100AD000550FEE1FFF1F661F02C073954BF2CDDE50
:100AE0005F910895100D211D391F02C0200D311D89
:100AF000491F591F08955F93DCDE703821F41120DF
:100B00000AF49FCFA4CF903809F495CF012408941C
:100B1000970B1BF4D4F30020F3CF792F1F932F935F
:100B20003F934F931124112722273327442755271A
:100B300090E2AE17BF078607410730F0AE1BBF0B30
:100B4000860B410B089401C08894551F221F331F48
:100B5000111CAA1FBB1F881F441F9A9551F7F9014A
:100B6000612D4F913F912F911F91662332F0550FC8
:100B7000EE1FFF1F661F7A9543F27FDE5F91089597
:100B800099239AF0772342F0971748F029F4AE178B
:100B9000BF07860720F031F09894889408959894C0
:100BA000089408951894889408957723C2F79717A6
:100BB00098F3A9F7EA17FB07680788F399F3ECCFD6
:100BC000EA0FFB1F681F791F0895F09560957095D7
:100BD000E195FF4F6F4F7F4F08956F2F660F660BA4
:100BE000762F0895E881F9816A817B810895A88133
:100BF000B9818A819B810895E883F9836A837B8325
:100C000008957A936A93FA93EA9308959A938A934C
:100C1000BA93AA930895182E862F612D192E972F17
:100C2000712D1B2EBF2FF12D1A2EAE2FE12D089501
:00000001FF
