:060000000C9444000C9476
:1000060000000C9400000C9400000C9400000C946A
:1000160000000C9400000C9400000C9400000C945A
:1000260000000C9400000C9400000C9400000C944A
:1000360000000C9400000C9400000C9400000C943A
:1000460000000C9400000C9400000C9400003E206C
:1000560068656C6C6F20776F726C6421203C004180
:10006600333A2050726F626C656D310080C01100AA
:10007600600154000D007101650002007E017200EE
:100086000000F894EE27ECBBF1E0FBBFEBBFE5BF49
:100096008DE0A2E0BB27ED938A95E9F780E094E036
:1000A600A0E6ED930197E9F7E4E7F0E085919591F5
:1000B600009761F0A591B59105901590BF01F001EB
:1000C60005900D920197E1F7FB01F0CFEFE5EDBF4B
:1000D600E4E0EEBFC0E6D1E00C947F00A0E6B1E01C
:1000E6000E940401E0E0EA93A1E00E94C700A1E7B4
:1000F600B1E00E9404010895EFEFEABBA0E10E947F
:100106002601ECDFFFCFFFCFFFE0FA95F1F7089568
:10011600AAB3AF70AABBD99AD898F6DFDA9AF4DFF9
:10012600A9B3DA98F1DFDA9AEFDFDA98A7FDF5CF0F
:100136000895A07FAB2BABBBDA9A0E948700DA98B2
:100146000E9487000895AA93D998AAB3A76FAABB5D
:10015600BBB3BF70A881EDDFA881A295EADFD99A6B
:100166000C945101DA9A0E948700E9B3DA980E944A
:100176008700E07F08950E948700F4DFAE2FF2DF4C
:10018600D998E295EA2B0895AA930E948B00E881FC
:10019600F0E0E258FE4FE081A981AE0F0E94A60072
:1001A60059804880229608950E948B00A2E00E9402
:1001B600A6000E948B00ACE00E94A6000E948B0065
:1001C600A1E00E94A600E0E04E2E5E2E0895AA93BE
:1001D600EF93FF93A8816894AA3019F0E894571416
:1001E60030F04394E0E0EA93A42DCEDF36F053944A
:1001F6008FDFD89AA8810E94A600FF91EF910C94F8
:100206005101BA93AA931A93A981BA81ED91A98350
:10021600BA831E2FE03019F0A12FD9DFF5CF188150
:1002260023960895AA27BB271197F1F70895AA9355
:10023600D998AAB3A76FAABBBBB3BF70A8810E9407
:100246009C00D99A2BC0AA93DA98D8987880E8812E
:10025600E058E0938001E881E054E093810120D0EA
:100266001FD01ED0DFDFA0E2E2DFDCDFA8E21CD079
:10027600A4E01AD0A5E818D0AAB3AF70AABBD99A41
:100286000E94BE00E53011F0E0E008C00E948B003D
:10029600A6E00E94A6000E94D700E1E021960895FC
:1002A6000E941501A0E3C3CF0E94A6000C9415017D
:00000001FF
