:0A0000000C942A000C9400000C94EC
:10000A0000000C9400000C9400000C9400000C9466
:10001A0000000C9400000C9400000C944A000C940C
:10002A0000000C9400000C9400000C9400000C9446
:10003A0000000C9400000C9400000C9400000C9436
:10004A0000000C9400000C940000F894EE27ECBB1E
:10005A00F1E0FBBFEBBFE5BF8DE0A2E0BB27ED936C
:10006A008A95E9F780E094E0A0E6ED930197E9F735
:10007A00EFE5EDBFE4E0EEBFC0E6D1E00C947A0014
:10008A00EBB3AFEFEA27EBBB08950A921A92FA9202
:10009A006A937A938A939A93AA93BA93EA93FA936E
:1000AA00EFB7EA93E3E8E2BFA0E6B1E0ED91FD9194
:1000BA003196FE93EE93A0916001B091610115977C
:1000CA0031F4DEDFE0E0E0936001E0936101E99161
:1000DA00EFBFF991E991B991A99199918991799192
:1000EA006991F990199009901895EFEFEABBE0E051
:1000FA00E7BBE4E0E4BBE0E0E1BBE3E0E3BFE3E865
:10010A00E2BFE0E0ECBFE1E0E9BF7894FFCFFFCFC8
:00000001FF
