:080000000C947E000C9400003A
:100008000C9400000C9400000C9400000C94000068
:100018000C9400000C9400000C9400000C942B012C
:100028000C9400000C9400000C9400000C94000048
:100038000C9400000C9400000C9400000C94000038
:100048000C9400000C9400000C940000FFFF0000CA
:10005800000000006400090008000A000200060011
:10006800040005000100AC03E80353706565643AB9
:10007800200020525053004163633A20200020732F
:1000880074702F73004D6F746F723A204F4646009C
:100098004D2E412054656872616E690080C0010070
:1000A8002D4E414E00494E4600000A0004005400FF
:1000B8000F00A9015E0008006001720005006801D8
:1000C8007A0007006D017F000700740186000B00AD
:1000D8007B018D000C00860198000B0092018D00B9
:1000E8000C009D0198000200BB01A4000100C201A0
:1000F800A6000000F894EE27ECBBF1E0FBBFEBBFD5
:10010800E5BF8DE0A2E0BB27ED938A95E9F780E093
:1001180094E0A0E6ED930197E9F7E2EBF0E0859132
:100128009591009761F0A591B59105901590BF0143
:10013800F00105900D920197E1F7FB01F0CFEFE593
:10014800EDBFE4E0EEBFC0E6D1E00C947001649727
:10015800E8EEF3E0EA19FB090E94F303A0E0B0E03F
:100168008AE794E40E948D050E942D06E2E0EA9356
:10017800DE011F960E94D502DA92CA92DE0112961B
:100188000E94A7020E941502E0E0EA93A0E00E9404
:100198000102A0E6B1E00E945102DE011A960E9417
:1001A8005102A8E6B1E00E94F803ADE6B1E00E9472
:1001B8005102DE010E945102A4E7B1E00E945102FF
:1001C80064960895062C072811F4E0E01EC0460C3A
:1001D800571CE8E0F0E04E165F0624F400244014B3
:1001E80050045CF4E1E0F0E0E615F70519F4E0E00E
:1001F800F0E002C0E7E0F0E02F01F201A9EAB1E087
:10020800EE0FFF1FAE0FBF1FEC91EBBB0895062C3E
:10021800072809F4089500240A140B0454F0AA24AA
:10022800BB24F3010E94FF033F01F6010E94FF0374
:100238006F01ECEAF3E0AE16BF062CF05F01F601A1
:100248000E94FF036F01AC0CBD1C81DF08950A9268
:100258001A92FA926A937A938A939A93AA93BA9380
:10026800EA93FA93EFB7EA93E3E8E2BFA9EBB1E0C8
:10027800ED91FD913196FE93EE93062C072821F01F
:10028800F40131964F0102C088249924E8EEF3E086
:10029800EA19FB098E169F0618F094DF8824992422
:1002A800A091B901B091BA01A83EE3E0BE0734F0CD
:1002B800AEDFE0E0E093B901E093BA01E991EFBF66
:1002C800F991E991B991A991999189917991699156
:1002D800F99019900990189510E0EFE1EABBE0E079
:1002E800EBBBEFEFE7BBE0E0E4BBE1BBE3E0E3BF80
:1002F800E3E8E2BFE0E0ECBFE1E0E9BFA0E10E9493
:1003080073027894ABE7B1E00E94F803A6E8B1E085
:100318000E945102EFEFFFEFE615F70511F4E0E058
:1003280001C0E1E0E03011F4DC9801C0DC9A103043
:1003380011F49A9B01C01DC00E94150211E0E3E868
:10034800E2BFE0E0E093B901E093BA01062C072888
:1003580029F4E1E0F0E05F013F010AC06624772458
:10036800A2E9B1E00E94F803ADE9B1E00E945102B0
:1003780002C09A9910E0CECFFFCFFFE0FA95F1F7CF
:100388000895A7B3AF70A7BBC19AC098F6DFC29A09
:10039800F4DFA6B3C298F1DFC29AEFDFC298A7FDD7
:1003A800F5CF0895A07FAB2BA8BBC29A0E94C101CC
:1003B800C2980E94C1010895AA93C198A7B3A76FD4
:1003C800A7BBB8B3BF70A881EDDFA881A295EADF0B
:1003D800C19A0C94A502C29A0E94C101E6B3C298C0
:1003E8000E94C101E07F08950E94C101F4DFAE2F91
:1003F800F2DFC198E295EA2B0895AA930E94C501FD
:10040800E881F0E0E554FE4FE081A981AE0F0E943B
:10041800E001E981E093BF01E881E093C001229601
:1004280008950E94C501A2E00E94E0010E94C50152
:10043800ACE00E94E0010E94C501A1E00E94E00139
:10044800E0E0E093C001E093BF010895AA93EF9321
:10045800FF93A8816894AA3039F0E894E091C1012B
:10046800A091BF01AE1758F0E091C001EF5FE09393
:10047800C001E0E0EA93A091C001BFDF56F0E0912F
:10048800BF01EF5FE093BF017CDFC09AA8810E94A3
:10049800E001FF91EF910C94A502BA93AA931A93E5
:1004A800A981BA81ED91A983BA831E2FE03019F092
:1004B800A12FCCDFF5CF188123960895AA27BB2753
:1004C8001197F1F70895AA93C198A7B3A76FA7BB8F
:1004D800B8B3BF70A8810E94D601C19A32C0AA934E
:1004E800C298C098E881E093C101E058E093BD014B
:1004F800E881E054E093BE010E9404040E940404D1
:100508000E940404DBDFA0E2DEDFD8DFA8E20E945D
:100518000904A4E00E940904A5E80E940904A7B3FD
:10052800AF70A7BBC19A0E94F801E53011F0E0E076
:1005380008C00E94C501A6E00E94E0010E941502C1
:10054800E1E021960895BA93AA93A991B991E99106
:10055800F99130962AF4E095F09531966DE26D9315
:10056800E89480E197E20DD088EE93E00AD084E623
:10057800992707D08AE005D06E2F10D066276C9394
:1005880008956627E817F90720F06395E81BF90B2B
:10059800C9F7662311F416F008956894605D6D93A9
:1005A8000895BA93AA932497E0E0E883E983EA835D
:1005B800EFE3EB831A930A93EB85FC85EF3FAFEFEC
:1005C800FA0739F40E940D04A8EAB0E00E94E60395
:1005D800ADC0EF3FAFE7FA0739F40E940D04A9EA6E
:1005E800B0E00E94E603A2C0AC85AA2362F4E985C4
:1005F800FA856B857C850E9449040E9412040E943A
:100608001704EDE2EC93A885A73010F0E6E0E88740
:100618001885E12F1150E03039F00E941E040E9425
:1006280023040E942A04F5CF0E942F040E94EF049D
:100638000E94120410E0E0E0F0E060E87FE30E942E
:100648002A040E942F040E94D20588F00E941E04EA
:100658000E9438040E942A041F5F173238F00E9453
:100668000D04ADEAB0E00E94E60360C0EACF1030A6
:1006780029F40E941704E0E3EC932DC0E12F1150F8
:10068800E03049F10E941E040E942304A0E0B0E07B
:1006980080E09FE30E94EF04DF01CB010E94CF03BB
:1006A8000E942A040E942F040E948D050E947C0447
:1006B8000E2F0E941704E02FE05DEC93E02FF0E08E
:1006C8000E941E040E94F3030E943F050E943F04FB
:1006D8000E944404D3CFE885E03021F10E9417043A
:1006E800EEE2EC93E885E150E887EF5FD9F00E94ED
:1006F8003F040E9438040E941204E985FA856B853C
:100708007C850E947C040E2F0E941704E02FE05D78
:10071800EC93E02FF0E00E943F040E94F3030E9454
:100728004404E0CFAE81BF81E0E0EC9319810881F9
:100738002D9608950E9432067B816A81F981E881AD
:1007480077FB770F67FD7160972F9E5781F078F0E0
:10075800983190F4AA27BB27882708948795B795DE
:10076800A7959A95D1F7EA23FB23682305C0E89457
:100778007727EE27FF2766276F77769508F4606856
:1007880077F9A991B99189919991EA17FB076807B7
:10079800790797FB08950E9432060E9423060E945B
:1007A8009E030E94280619F40E941E0609C0E6F757
:1007B8000E941E06A0E0B0E080E89FE30E94E804E3
:1007C80024960895BA93AA93E991F991A991B991B8
:1007D800CD0105900D920020E1F7FC0108950E94DB
:1007E800FE050E94B50408950E945102E0E0EA93D4
:1007F800A1E00C940102AFEFBFEF0E940B06089531
:100808000E946202A0E30C9467020E94E0010C942B
:100818006202EE81FF81FA93EA930895E987FA87E5
:100828006B877C870895AE81BF811196AE83BF83A5
:1008380011970895AA81BB818C819D810895EDEC63
:10084800FCEC6CEC7DE30E943F050895EA83FB8392
:100858006C837D830895EA81FB816C817D81A98504
:10086800BA858B859C850895E0E0F0E060E271E44C
:100878000E943F050895A985BA858B859C850895B2
:100888000E9437060E94E804C9CF30976040704044
:1008980009F070580895552342F4503811F4E0FFD8
:1008A80004C03196691F791F6BF050E8572711F47F
:1008B8005F93CFC05F3F31F0660F000C5795679587
:1008C800752F08955F9300200AF0CFC0C8C050E884
:1008D800192E1522880F991F9527550F879550E8CF
:1008E800072E0522660F771F7527550F6795089500
:1008F800689401C0E8945F93F2DF703818F07F3F86
:1009080008F4A7C056E1571BAAF4519558300EF4C5
:10091800593030F0EFEFFFEF6FEF7FE777F91AC04C
:1009280077275523B9F0EE0FFF1F661F771F5A95DB
:10093800D1F710C07727583028F0EF2FF62F672F00
:100948005850F9CF552331F076956795F795E79587
:100958005A95D1F700200AF445D15F91089568941B
:1009680001C0E894309760407040B1F0002426F050
:10097800772312F4009436D1172E7EE1112032F03D
:100988007A95EE0FFF1F661F111CF9CFEF2FF62F78
:10099800612D5F938ADF5F9108954F93AF01FD0149
:1009A800DA01AB01BC01CA01402D012C142E4F9174
:1009B8000895EA0FFB1F681F0895E095F09560956C
:1009C800EF5FFF4F6F4F08955F9381DF903871F1AC
:1009D80050E8152604C05F937ADF903839F17038F3
:1009E80021F1572F591B2BF112F4D7DFFACF5831C9
:1009F80018F0AA27BB278827583028F0AB2FB82F24
:100A080088275850F9CF552329F08695B795A7958B
:100A18005A95D9F7502D512572F0CBDF38F46795E8
:100A2800F795E795739513F420C0B7DF3EDF5F9124
:100A38000895D8F7FBCFEA1BFB0B680B51F010F4B5
:100A48000094BBDF662392F3EE0FFF1F661F7A95B3
:100A5800CBF7EE27FF27662777275F910895EFEFFB
:100A6800FFEF6FE77FEF5F910895EFEFFFEF6FE71D
:100A78007FE75F9108955F932ADF703851F39038CC
:100A880041F301240894791F23F41CF300203AF35E
:100A9800ECCF0F921F932F933F934F931127222749
:100AA8009927689FA0018F9F302D410D591F6B9F7B
:100AB800300D411D591F8E9F27D0BF9F25D06A9F9B
:100AC80023D0BE9F1DD0AF9F1BD0AE9F110D291FF5
:100AD800391F491F591FE32FF42F652F522F4F91AC
:100AE8003F912F911F910F9066232AF0550FEE1F0B
:100AF800FF1F661F02C073954BF2CDDE5F9108950C
:100B0800100D211D391F02C0200D311D491F591F0D
:100B180008955F93DCDE703821F411200AF49FCF2A
:100B2800A4CF903809F495CF01240894970B1BF4AF
:100B3800D4F30020F3CF792F1F932F933F934F9334
:100B480011241127222733274427552790E2AE176F
:100B5800BF078607410730F0AE1BBF0B860B410B62
:100B6800089401C08894551F221F331F111CAA1F07
:100B7800BB1F881F441F9A9551F7F901612D4F91AA
:100B88003F912F911F91662332F0550FEE1FFF1FE3
:100B9800661F7A9543F27FDE5F91089599239AF054
:100BA800772342F0971748F029F4AE17BF07860756
:100BB80020F031F0989488940895989408940895B2
:100BC8001894889408957723C2F7971798F3A9F78C
:100BD800EA17FB07680788F399F3ECCFF195E195DD
:100BE800F0400895F09560957095E195FF4F6F4F2F
:100BF8007F4F08956F2F660F660B762F0895FA9F23
:100C0800F02DEB9FF00DEA9FE02DF10D089504D033
:100C1800F6DF0EF4E3DF0895E894F7FF02C0DEDFA5
:100C28006894B7FF06C0A095B095119600F8039494
:100C380000FA0895E881F9816A817B810895A88185
:100C4800B9818A819B810895E883F9836A837B83CC
:100C580008957A936A93FA93EA9308959A938A93F4
:100C6800BA93AA930895182E862F612D192E972FBF
:100C7800712D1B2EBF2FF12D1A2EAE2FE12D0895A9
:00000001FF
