:060000000C9432000C9488
:1000060000000C9400000C9400000C9400000C946A
:1000160000000C9400000C9400000C9400000C945A
:1000260075000C9400000C9400000C9400000C94D5
:1000360000000C9400000C9400000C9400000C943A
:1000460000000C9400000C9400000C9400000908B9
:100056000A02060405010800600154000000F89435
:10006600EE27ECBBF1E0FBBFEBBFE5BF8DE0A2E006
:10007600BB27ED938A95E9F780E094E0A0E6ED933F
:100086000197E9F7ECE5F0E085919591009761F02D
:10009600A591B59105901590BF01F00105900D92BF
:1000A6000197E1F7FB01F0CFEFE5EDBFE4E0EEBF2E
:1000B600C0E6D1E00C94A700A0916A01A83020F018
:1000C600E0E0E0936A010895A0916A01E0916A0177
:1000D600EF5FE0936A01E150F0E0E05AFE4FE08105
:1000E600EBBB08950A921A92FA926A937A938A93CC
:1000F6009A93AA93BA93EA93FA93EFB7EA93E3E84B
:10010600E2BFA8E6B1E0ED91FD913196FE93EE9344
:10011600A0916801B0916901A83EE3E0BE0731F401
:10012600CBDFE0E0E0936801E0936901E991EFBF7E
:10013600F991E991B991A9919991899179916991E9
:10014600F990199009901895EFE0EABBE0E0EBBB57
:10015600E7BBE4BBE1BBE3E0E3BFE3E8E2BFE0E02B
:10016600ECBFE1E0E9BF78949A990EC0E0E0E9BF00
:10017600A5E0B0E00E94C900E0E0EBBBA5E0B0E07E
:100186000E94C900E1E0E9BFEFCFFFCF109639F03A
:1001960080ED97E00197F1F7A8951197C9F70895B3
:00000001FF
