:100000000C943A000C9400000C9400000C94000036
:100010000C9400000C9400000C9400000C94000060
:100020000C9400000C948A000C9400000C940000C6
:100030000C9400000C9400000C9400000C94000040
:100040000C9400000C9400000C9400000C94000030
:100050000C940000010009080A0206040501FF00D3
:1000600002000400540008006001560001006A010B
:100070005E000000F894EE27ECBBF1E0FBBFEBBFA5
:10008000E5BF8DE0A2E0BB27ED938A95E9F780E01C
:1000900094E0A0E6ED930197E9F7E0E6F0E08591C2
:1000A0009591009761F0A591B59105901590BF01CC
:1000B000F00105900D920197E1F7FB01F0CFEFE51C
:1000C000EDBFE4E0EEBFC0E6D1E00C94BC00042C30
:1000D000052811F4E0E01CC0E42DA0916A01EA0FAC
:1000E000E0936A01A0916A01A83010F4A03050F4A6
:1000F000E1E0F0E0E415F50511F4E0E001C0E7E02F
:10010000E0936A01E0916A01F0E0E05AFE4FE0817D
:10011000EBBB08950A921A92FA926A937A938A93A1
:100120009A93AA93BA93EA93FA93EFB7EA93E3E820
:10013000E2BFA8E6B1E0ED91FD913196FE93EE931A
:10014000A0916801B0916901A83EE3E0BE0731F4D7
:10015000BEDFE0E0E0936801E0936901E991EFBF61
:10016000F991E991B991A9919991899179916991BF
:10017000F99019900990189510E0EFE1EABBE0E0E2
:10018000EBBBE7BBE4BBE1BBE3E0E3BFE3E8E2BF1B
:10019000E0E0ECBFE1E0E9BF7894EFEFFFEFE415BA
:1001A000F50511F4E0E001C0E1E0E03011F4DC9885
:1001B00001C0DC9A103011F49A9B01C00EC011E00E
:1001C000F201AFEFBFEF0E94FD002F01E4EFF1E07D
:1001D000E0936801F093690102C09A9910E0DDCFC5
:1001E000FFCFF195E195F0400895FA9FF02DEB9F38
:1001F000F00DEA9FE02DF10D089504D0F6DF0EF426
:10020000F0DF0895E894F7FF02C0EBDF6894B7FFD2
:1002100006C0A095B095119600F8039400FA0895D1
:00000001FF
