:080000000C942A000C9400008E
:100008000C9400000C9400000C9400000C94000068
:100018000C9400000C9400000C9400000C948500D3
:100028000C9400000C9400000C9400000C94000048
:100038000C9400000C9400000C9400000C94000038
:100048000C9400000C9400000C940000F894EE2727
:10005800ECBBF1E0FBBFEBBFE5BF8DE0A2E0BB2747
:10006800ED938A95E9F780E094E0A0E6ED93019797
:10007800E9F7EFE5EDBFE4E0EEBFC0E6D1E00C94B0
:10008800B700BA93AA93E881F981309711F4EFE3A6
:1000980035C0E130A0E0FA0711F4E6E02FC0E23005
:1000A800A0E0FA0711F4EBE529C0E330A0E0FA0775
:1000B80011F4EFE423C0E430A0E0FA0711F4E6E617
:1000C8001DC0E530A0E0FA0711F4EDE617C0E630F0
:1000D800A0E0FA0711F4EDE711C0E730A0E0FA0755
:1000E80011F4E0E00BC0E830A0E0FA0711F4EFE308
:1000F80005C0E930A0E0FA0709F4EFE72296089571
:1001080008950A921A92FA926A937A938A939A9322
:10011800AA93BA93EA93FA93EFB7EA93ECE9E2BFAA
:10012800A0E6B1E0ED91FD913196FE93EE93A0919A
:100138006001B0916101A83EE3E0BE0731F4E0DF61
:10014800E0E0E0936001E0936101E991EFBFF9918C
:10015800E991B991A9919991899179916991F990C8
:10016800199009901895EFE0E4BBEFEFE1BBE2E0EE
:10017800E3BFECE9E2BFE0E0ECBFE1E0E9BF78947F
:10018800E0E0E5BBA6E0B0E07CDFE2BBF9CFFFCF63
:00000001FF
