:060000000C942A000C9490
:1000060000000C9400000C9400000C9400000C946A
:1000160000000C9400000C9400000C94A0000C94BA
:100026009B000C9400000C9400000C9400000C94AF
:1000360000000C9400000C9400000C9400000C943A
:1000460000000C9400000C9400000C940000F8943E
:10005600EE27ECBBF1E0FBBFEBBFE5BF8DE0A2E016
:10006600BB27ED938A95E9F780E094E0A0E6ED934F
:100076000197E9F7EFE5EDBFE4E0EEBFC0E6D1E0BA
:100086000C94D400BA93AA93E881F981309711F4BD
:10009600EFE335C0E130A0E0FA0711F4E6E02FC047
:1000A600E230A0E0FA0711F4EBE529C0E330A0E066
:1000B600FA0711F4EFE423C0E430A0E0FA0711F4E4
:1000C600E6E61DC0E530A0E0FA0711F4EDE617C03C
:1000D600E630A0E0FA0711F4EDE711C0E730A0E042
:1000E600FA0711F4E7E00BC0E830A0E0FA0711F4D4
:1000F600EFE705C0E930A0E0FA0709F4EFE622963B
:100106000895A4E6B1E0ED91FD913196FE93EE934C
:100116003197DF01B7DFE2BBA0916401B0916501C1
:100126001A9728F0E0E0E0936401E09365010895F2
:10013600EA93ECE9E2BFE99118950A921A92FA92CB
:100146006A937A938A939A93AA93BA93EA93FA93C1
:10015600EFB7EA93E0EEEDBDE0ECECBDA0E6B1E072
:10016600ED91FD913196FE93EE93A0916001B091D1
:100176006101A83EE3E0BE0731F4C3DFE0E0E093AF
:100186006001E0936101E991EFBFF991E991B991BD
:10019600A9919991899179916991F990199009900C
:1001A6001895EFE0E4BBEFEFE1BBEEEFE5BBE2E075
:1001B600E3BFECE9E2BFE0E0EFBDE1E0EEBDE0EE7B
:1001C600EDBDE0ECECBDE5E0E9BF7894FFCFFFCFF5
:00000001FF
