:0A0000000C942A000C9400000C94EC
:10000A0000000C9400000C9400000C9400000C9466
:10001A0000000C9400000C94C7000C94C2000C94CD
:10002A0000000C9400000C9400000C9400000C9446
:10003A0000000C9400000C9400000C9400000C9436
:10004A0000000C9400000C940000F894EE27ECBB1E
:10005A00F1E0FBBFEBBFE5BF8DE0A2E0BB27ED936C
:10006A008A95E9F780E094E0A0E6ED930197E9F735
:10007A00EFE5EDBFE4E0EEBFC0E6D1E00C94EB00A3
:10008A00BA93AA93E881F981309711F4EFE335C066
:10009A00E130A0E0FA0711F4E6E02FC0E230A0E078
:1000AA00FA0711F4EBE529C0E330A0E0FA0711F4EE
:1000BA00EFE423C0E430A0E0FA0711F4E6E61DC03D
:1000CA00E530A0E0FA0711F4EDE617C0E630A0E04B
:1000DA00FA0711F4EDE711C0E730A0E0FA0711F4CE
:1000EA00E7E00BC0E830A0E0FA0711F4EFE705C03B
:1000FA00E930A0E0FA0709F4EFE6229608950E9493
:10010A0033010091640110916501A0916201B091DF
:10011A00630114972CF0E0E0E0936201E09363013D
:10012A00E0916201A1E00E941501E095EF70E5BB44
:10013A0020E030E0E0916201F09163012E173F0761
:10014A004CF4D801EAE0F0E00E941D018F012F5F14
:10015A003F4FF0CFD801EAE0F0E00E943001DF0122
:10016A008FDFE2BBA2E6B1E047D00E9438012496B5
:10017A000895A4E6B1E040D0089544D0E0E0E2BF9B
:10018A00BEDF16C03FD0E0EEEDBDE0ECECBDA0E670
:10019A00B1E032D0A0916001B0916101A83EE3E0E4
:1001AA00BE0731F4E6DFE0E0E0936001E09361012D
:1001BA00E991EFBFF991E991B991A9919991899141
:1001CA0079916991F990199009901895EFE0E4BB3B
:1001DA00EFEFE1BBEEEFE5BBE5E0E3BFE0E0E2BF56
:1001EA00EFBDE1E0EEBDE0EEEDBDE0ECECBDE5E03B
:1001FA00E9BF7894FFCFFFCFED91FD913196FE9341
:10020A00EE9308950A921A92FA926A937A938A93CB
:10021A009A93AA93BA93EA93FA93EFB7EA93089553
:10022A00EE230E2EEA2F19F0EE0F0A94E9F708953D
:10023A000024112490E1AA0FBB1F001C111C0E1AE6
:10024A001F0A18F40E0E1F1E01C0A1609A9599F795
:10025A00FD01D0010895ECDFFD0108953A932A9338
:10026A001A930A9308953B812A8119810881089576
:00000001FF
