:0A0000000C942A000C9400000C94EC
:10000A0000000C9400000C9400000C9400000C9466
:10001A0000000C9400000C9400000C9445000C9411
:10002A0000000C9400000C9400000C9400000C9446
:10003A0000000C9400000C9400000C9400000C9436
:10004A0000000C9400000C940000F894EE27ECBB1E
:10005A00F1E0FBBFEBBFE5BF8DE0A2E0BB27ED936C
:10006A008A95E9F780E094E0A0E6ED930197E9F735
:10007A00EFE5EDBFE4E0EEBFC0E6D1E00C944A0044
:10008A00EA93ECE9E2BFE9911895EFEFE4BBE0E00F
:10009A00E5BBEFE0E1BBE0E0E2BBE2E0E3BFECE9B5
:1000AA00E2BFE0E0ECBFE1E0E9BF7894FFCFFFCF29
:00000001FF
